:100000000000042071030000590300005B0300009E
:100010005D0300005F0300006103000000000000BA
:100020000000000000000000000000005D12000061
:100030006503000000000000811200006903000059
:10004000914400006B0300006B0300006B03000091
:100050006B0300006B0300005D4900006B030000B0
:100060006B0300006B0300006B0300006B030000D8
:100070006B0300006B0300006B0300006B030000C8
:100080006B0300009D1700006B0300006B03000072
:100090006B0300006B0300006B0300006B030000A8
:1000A0006B0300006B0300006B0300006B03000098
:1000B0006B0300006B030000000000000000000064
:1000C0006B0300006B0300006B0300006B03000078
:1000D0006B0300006B0300006B0300006B03000068
:1000E0006B0300006B0300006B03000000000000C6
:1000F000000000006B030000000000006B03000024
:1001000000000000000000000000000000000000EF
:1001100000000000000000000000000000000000DF
:1001200000000000000000000000000000000000CF
:1001300000000000000000000000000000000000BF
:1001400000000000000000000000000000000000AF
:10015000000000000000000000000000000000009F
:10016000000000000000000000000000000000008F
:10017000000000000000000000000000000000007F
:10018000000000000000000000000000000000006F
:10019000000000000000000000000000000000005F
:1001A000000000000000000000000000000000004F
:1001B000000000000000000000000000000000003F
:1001C000000000000000000000000000000000002F
:1001D000000000000000000000000000000000001F
:1001E000000000000000000000000000000000000F
:1001F00000000000000000000000000000000000FF
:10020000344935480A1A02D0072291438D463349B2
:1002100033480A1A06D00722914381F30988022243
:1002200082F314882F483049304A00F041F83048B2
:100230003049314A00F03CF830483149314A00F049
:1002400037F831483149324A00F032F83148324902
:10025000324A00F02DF832483249334A00F028F88B
:1002600032483349334A00F023F8334833490022F7
:1002700000F029F832483349002200F024F83248CF
:100280003249091A05F02CFD314A90471F48204990
:10029000884205D00268043003B4904703BCF7E7F6
:1002A00000208646EC46002000212A4A9047FEE7BF
:1002B000884207D0521A05D0037801300B70013103
:1002C000013AF9D17047884202D002700130FAE752
:1002D000704700000000042000E00320000004201C
:1002E00000000420DC68000000000020080000205E
:1002F000CC030000CC030000F45C0000DC680000CC
:100300000000002000000020305D0000305D000093
:10031000305D0000305D0000305D0000305D0000A9
:10032000305D0000305D0000DC680000E468000023
:100330000800002008000020080000208C29002070
:100340008C2900208C2900208C2900208C49002039
:1003500099030000A14B0000FEE7FEE7FEE7FEE781
:10036000FEE7FEE7FEE7FEE7FEE7FEE700F002B885
:10037000FFF7FCBF0F484FF00701884385460E4842
:1003800080470E48016841F470010160BFF34F8F50
:10039000BFF36F8FFFF734BF09480A490A4A884202
:1003A00007D0521A05D0037801300B700131013AA1
:1003B000F9D17047000004202150000088ED00E0D2
:0C03C000305D0000000000200000002064
:1003CC0000B583B001900091019B1B681B680099DC
:1003DC000198984700BF03B05DF804FB00B583B0EB
:1003EC000190019B1B685B680198984700BF03B0A4
:1003FC005DF804FB00B583B00190019B1B689B6802
:10040C000198984700BF03B05DF804FB82B00190DF
:10041C00019BDB6801225A7100BF02B0704782B0A9
:10042C000190019BDB685B79184602B070470000B5
:10043C00024A034BD31ADB08184670471C5D0000B8
:10044C00F45C000084B00190009100238DF80F3013
:10045C00019B1B7803F00403DBB2002B24D0019B1F
:10046C001B78C3F30103DBB2012B02D0022B0CD09F
:10047C0017E0009B1B68019A1288C2F38312D2B258
:10048C0013449A1C009B1A600BE0009B1B68019A9A
:10049C005288C2F3891292B213449A1C009B1A60C0
:1004AC0000BF01238DF80F309DF80F30184604B0B3
:1004BC007047000000B58BB00023ADF826303E48E5
:1004CC0003F006FB3D4803F003FB3D4B9B68049394
:1004DC003C4B1B680693049A069B134002339B000B
:1004EC00374A13440433089304AB19460898FFF7B2
:1004FC00A9FF0346002B09D0049A069B1340023334
:10050C009B002F4A134404330893EDE700BF0023EC
:10051C00079311E0049B5A1C0492069A1340079A05
:10052C00920001A90A44264902339B000B445B68E4
:10053C001360079B01330793079B012BEAD99DF8A6
:10054C000430C3F30103DBB2012B10D0022B1CD1FE
:10055C00BDF80A30ADF82630BDF80630C3F3891368
:10056C009BB203339A08049B1344049313E0BDF825
:10057C000A30ADF82630BDF80430C3F38313DBB278
:10058C001A46049B1344049305E00F494FF4C270C0
:10059C0003F011FA00BF094803F0A6FA0590059B79
:1005AC00002B02D0049B064A9360BDF826301846F7
:1005BC000BB05DF804FB00BFF0040020EC0400203D
:1005CC00D800002000000020345D000000B585B08C
:1005DC000021074803F005FA0390039B0293029B4A
:1005EC0083F310030193019B184605B05DF804FBDF
:1005FC00F404002000B589B003900291019200939D
:10060C00039B1B0C0793FFF7E1FF0690FFF710FF0E
:10061C000246079B934204D3214940F2A91003F0F0
:10062C00CAF9069B1904009B5A1C0A9B1340079A93
:10063C000A431C4902339B000B445A60009A0A9BE4
:10064C00134002339B00174A134404330593039B56
:10065C0003F00703D9B2059A137861F3C50313703D
:10066C00019B03F00F03D9B2059A138861F3891328
:10067C001380029BC3F31501059A136861F39F2342
:10068C001360059A1378012161F301031370059A25
:10069C0013786FF38203137000BF09B05DF804FB8D
:1006AC00345D0000D800002000BF704700B58BB04F
:1006BC000390029113468DF80730039B0233089385
:1006CC0001238DF81F30002003F02EF93E4B5A68A1
:1006DC00029B1A603D4B1A683B4B99683A4B5B681E
:1006EC00CB1A13440133099314E00121384803F069
:1006FC00BFF9FFF7DFFE05900599354803F0B8F90F
:10070C00324B1A68304B99682F4B5B68CB1A1344E9
:10071C0001330993089A099B9A42E6D89DF81F3039
:10072C00002B48D0002304939DF80730002B17D0E2
:10073C009DF81030012262F301038DF810309DF802
:10074C00103043F004038DF81030039B03F00F03BB
:10075C00DAB2BDF8103062F38913ADF8103016E040
:10076C009DF81030022262F301038DF810309DF8D1
:10077C00103043F004038DF81030039BC3F30903CE
:10078C009AB2BDF8123062F38F13ADF812300E4BE3
:10079C005A680E4B1B68134002339B000A4A1344E1
:1007AC0004330693049A069B1A60074B5A68089BFD
:1007BC001344054A5360002003F0CAF89DF81F301B
:1007CC0018460BB05DF804FBD80000200000002098
:1007DC00F404002000B58BB00590049103920293B1
:1007EC00204B1B68079306AB012219460298FFF7B2
:1007FC005DFF0346002B24D0069B02330993002394
:10080C00089311E0089B9B00039A1A44099B591CFE
:10081C00099107990B401268134902339B000B4452
:10082C005A60089B01330893089A029B9A42E9D3B9
:10083C00069A079B00931346029A04990598FFF7B2
:10084C00D9FE094B1B78002B05D000BF00F06AF8CD
:10085C000346002BFAD1FFF727FF00BF0BB05DF862
:10086C0004FB00BF00000020D800002000B583B0BE
:10087C00019000910023002200990198FFF7AAFF34
:10088C0000BF03B05DF804FB00B587B00390029184
:10089C000192019B059305AA012302990398FFF786
:1008AC0099FF00BF07B05DF804FB00B587B003905B
:1008BC00029101920093019B0493009B059304AA5F
:1008CC00022302990398FFF785FF00BF07B05DF87C
:1008DC0004FB00B58BB00390029101920093019B35
:1008EC000593009B06930C9B07930D9B08930E9B03
:1008FC00099305AA052302990398FFF76BFF00BF24
:10090C000BB05DF804FB0000054B9A68044B5B6868
:10091C009A420CBF01230023DBB21846704700BF7C
:10092C00D800002000B599B0FFF7EEFF0346002B6E
:10093C0001D00023B9E19B4B0022C3F81824BFF36C
:10094C004F8F00BF974B9B680493974B1B6810937A
:10095C00049A109B134002339B00924A13440433B5
:10096C001193002317930023169300230F9304ABCA
:10097C0019461198FFF766FD0346002B19D0894BD9
:10098C00D3F81834002B14D1864B5A68049B9A4226
:10099C0005D8844B5B68834A9360002385E1049AF5
:1009AC00109B134002339B007E4A13440433119373
:1009BC00DDE70023159311E0049B5A1C0492109A56
:1009CC001340159A920001A90A44764902339B0000
:1009DC000B445B681360159B01331593159B012B1E
:1009EC00EAD99DF8043003F00303DBB2022B40F08C
:1009FC009C80BDF80630C3F389139BB20D93BDF8F0
:100A0C000630C3F389139BB2502B28BF50239BB2E3
:100A1C000C930C9BC3F309039AB2BDF8063062F336
:100A2C008F13ADF806300C9B08330B939DF80430F4
:100A3C00C3F3C203DBB20F930B995C4803F004F9C8
:100A4C001790179B002B00F0D380179803F08DF9AB
:100A5C0001A9169B0822179803F042FA169B08333B
:100A6C001693049BDA43109B134001339B000A93AB
:100A7C000C9A0A9B9A4242D90A9B002B08D0049AE2
:100A8C00109B134002339B00464A1344043300E08E
:100A9C00474B08930A9B002B02D00A9BDBB201E068
:100AAC000C9BDBB28DF81F300A9B002B01D0404B06
:100ABC0000E0002306930A9B002B06D00C9BDAB2B5
:100ACC000A9BDBB2D31ADBB200E000238DF817309F
:100ADC009DF81F20169B0899179803F001FA9DF8B2
:100AEC001F30169A13441693069B002B16D09DF8B4
:100AFC001720169B0699179803F0F2F90EE0049A4A
:100B0C00109B134002339B00264A13440433099371
:100B1C00169B0C9A0999179803F0E2F90D9B033375
:100B2C009A08049B1344049362E09DF8043003F08C
:100B3C000303DBB2012B5BD1BDF80430C3F3831389
:100B4C00DBB2062B28BF0623DAB2BDF8043062F301
:100B5C008913ADF80430BDF80430C3F38313DBB252
:100B6C0002330E939DF80430C3F3C203DBB20F9330
:100B7C000E9B9B0019460D4803F066F81790179BC7
:100B8C00002B35D0179803F0F0F801A9169B08221A
:100B9C00179803F0A5F9169B0833169300231593A9
:100BAC001DE000BFD8000020000000201C5D0000EC
:100BBC00E4000020049B5A1C0492109A1340023348
:100BCC009B003C4A1344191D169B0422179803F0F2
:100BDC0087F9169B04331693159B01331593BDF8B7
:100BEC000430C3F38313DBB21A46159B9342E1D353
:100BFC00179B002B39D02F4BD3F8103414932D4B5B
:100C0C00D3F81834002B1BD0179803F0BDF846E02E
:100C1C0000238DF84F301498FFF701FC0346002B8E
:100C2C0002D001238DF84F309DF84F30002B03D0AC
:100C3C0017991498FFF7C4FB149BDB681B6814937B
:100C4C00149B002BE4D1179803F09EF8002002F0BF
:100C5C006BFE184BD3F81834002B02D1049B154AA9
:100C6C009360002002F074FE19E0124BD3F810349C
:100C7C00129306E01298FFF7BDFB129BDB681B6812
:100C8C001293129B002BF5D10B4A0C4BD31ADB0899
:100C9C001B0443F002030A491846FFF7E7FDFFF770
:100CAC0033FE034683F00103DBB2184619B05DF83E
:100CBC0004FB00BFD8000020045D0000F45C0000C1
:100CCC00805D000000B583B00C4BD3F81034019359
:100CDC000A4B01221A7009E00198FFF797FB019863
:100CEC00FFF77CFB019BDB681B680193019B002BCE
:100CFC00F2D100BF00BF03B05DF804FBD8000020A8
:100D0C0000B583B00190019B1B68184600F0E5F814
:100D1C000346002B04D10B494FF4F67002F04BFE46
:100D2C00019B1B681F2B02D84FF0A04306E0019BD0
:100D3C001B6803F01F02019B1A60034B184603B09B
:100D4C005DF804FB945D00000003005000B585B015
:100D5C000190084611461A4603468DF803300B469F
:100D6C008DF8023013468DF8013001AB1846FFF7B1
:100D7C00C7FF03909DF803209DF802305B001A43D7
:100D8C009DF801309B001A439DF818301B0242EA73
:100D9C0003019DF81C301B04019A1943039B02F5B7
:100DAC00E07243F8221000BF05B05DF804FB00B5FB
:100DBC0085B00390002301930023009300230122AC
:100DCC0001210398FFF7C2FF00BF05B05DF804FBDB
:100DDC0000B585B003900B468DF80B309DF80B30A9
:100DEC000022019200220092002200210398FFF7BA
:100DFC00ADFF00BF05B05DF804FB00B585B00190F8
:100E0C0001AB1846FFF77CFF0390019B012202FA0D
:100E1C0003F31946039800F04CF800BF05B05DF8D9
:100E2C0004FB00B585B0019001AB1846FFF768FFD5
:100E3C000390019B012202FA03F31946039800F078
:100E4C0042F800BF05B05DF804FB00B585B0019019
:100E5C0001AB1846FFF754FF0390039BD3F80435FE
:100E6C000293029BDA43019B012101FA03F31A401E
:100E7C00039BC3F80825019B01229A40029B1A4050
:100E8C00039BC3F80C2500BF05B05DF804FB00B54F
:100E9C0083B001900091009B002B03D10198FFF7C8
:100EAC00C0FF02E00198FFF7A8FF00BF03B05DF898
:100EBC0004FB82B001900091019B009AC3F80825B5
:100ECC0000BF02B0704782B001900091019B009A64
:100EDC00C3F80C2500BF02B0704784B00190019B91
:100EEC005B09029300230393029B002B03D0029B0C
:100EFC00012B04D007E04FF0FF33039303E04FF6D0
:100F0C00FF73039300BF019B03F01F030193039A2C
:100F1C00019B22FA03F303F00103002B14BF0123FE
:100F2C000023DBB2184604B07047000000B583B054
:100F3C000190019B032B03D90749472002F03BFD8D
:100F4C00064A019B13441B7801211846FFF79FFFAB
:100F5C0000BF03B05DF804FBC45D0000FC5D000045
:100F6C0000B583B00023019305E00198FFF7DEFF85
:100F7C00019B01330193019B032BF6D900BF00BFEA
:100F8C0003B05DF804FB000000B583B00190019B39
:100F9C00032B03D907495F2002F00DFD064A019B84
:100FAC0013441B781846FFF750FF00BF03B05DF8E1
:100FBC0004FB00BFC45D0000FC5D000000B583B005
:100FCC000023019309E0094A019B13441B7818463E
:100FDC00FFF7EDFE019B01330193019B032BF2D92B
:100FEC00FFF7BEFF00BF03B05DF804FBFC5D000023
:100FFC0000B583B0002301930AE0094A019B134416
:10100C001B7803211846FFF7E3FE019B0133019384
:10101C00019B032BF1D900BF00BF03B05DF804FBAB
:10102C00005E000000B583B00190019B03F001034A
:10103C00002B01D0FFF7C2FF019B03F00203002B32
:10104C0001D0FFF7D5FF00BF03B05DF804FB000033
:10105C0000B585B0019000230393019B03F00703B7
:10106C00002B04D0019B23F007030833019301F0FC
:10107C008DFB164B1B68002B05D1154B23F007037A
:10108C001A46124B1A60134B1A68019B134441F613
:10109C00F772934213D80F4B1A68019B1A440D4BED
:1010AC001B689A420BD9094B1A680A4B1B681344EC
:1010BC000393084B1A68019B1344064A136001F012
:1010CC00A5FB039B184605B05DF804FBFC2400202F
:1010DC0000050020F824002000B583B00190019B8E
:1010EC00002B03D00349832002F065FC00BF03B042
:1010FC005DF804FB045E000082B00190019B03F1DB
:10110C000802019B5A60019B4FF0FF329A60019BD1
:10111C0003F10802019BDA60019B03F10802019BB9
:10112C001A61019B00221A6000BF02B0704782B0A6
:10113C000190019B00221A6100BF02B0704784B07D
:10114C0001900091019B5B680393009B039A5A608A
:10115C00039B9A68009B9A60039B9B68009A5A6059
:10116C00039B009A9A60009B019A1A61019B1B6871
:10117C005A1C019B1A6000BF04B0704784B00190E8
:10118C000091009B1B680293029BB3F1FF3F03D1BC
:10119C00019B1B6903930CE0019B0833039302E052
:1011AC00039B5B680393039B5B681B68029A9A42E0
:1011BC00F6D2039B5A68009B5A60009B5B68009AAE
:1011CC009A60009B039A9A60039B009A5A60009B5A
:1011DC00019A1A61019B1B685A1C019B1A6000BF83
:1011EC0004B0704784B00190019B1B690393019B71
:1011FC005B68019A92689A60019B9B68019A52689D
:10120C005A60039B5B68019A9A4203D1019B9A68CE
:10121C00039B5A60019B00221A61039B1B685A1E98
:10122C00039B1A60039B1B68184604B070470000B0
:10123C000648006880F3088862B661B6BFF34F8F2A
:10124C00BFF36F8F00DF00BF00BF00000000000085
:10125C00074B19680868B0E8F04F80F30988BFF3B2
:10126C006F8F4FF0000080F31188704700BF0000B3
:10127C001C250020EFF30980BFF36F8F154B1A6804
:10128C001EF0100F08BF20ED108A20E9F04F1060FF
:10129C004DF8043D4FF0400080F31188BFF34F8FA1
:1012AC00BFF36F8F01F01EFC4FF0000080F311882C
:1012BC0008BC19680868B0E8F04F1EF0100F08BFA2
:1012CC00B0EC108A80F30988BFF36F8F704700BFB2
:1012DC0000BF00001C250020034BDB681B0A03F039
:1012EC0007031846704700BF00ED00E082B00346CC
:1012FC0000918DF807309DF90730002B0ADB009B1D
:10130C00DAB20C499DF907305201D2B20B4483F882
:10131C0000230BE0009BDAB207499DF8073003F07D
:10132C000F03043B5201D2B20B441A7600BF02B039
:10133C00704700BF00E100E000ED00E084B00390D6
:10134C0002910192039B043B0393002343F08073AF
:10135C001A46039B1A60039B043B0393029A039B5C
:10136C001A60039B043B03930B4A039B1A60039B79
:10137C00143B0393019A039B1A60039B043B039356
:10138C00039B6FF002021A60039B203B0393039BA9
:10139C00184604B0704700BFA913000000B583B015
:1013AC00074B1B68B3F1FF3F03D006499E2002F0A8
:1013BC0002FB40230193019B83F3118800BFFEE7DE
:1013CC0000250020545E000000B585B0304B1B6832
:1013DC00304A934203D03049B02002F0ECFA2F4B44
:1013EC000393039B1B78DBB20293039BFF221A70BF
:1013FC00039B1B78DBB28DF807309DF80730DBB20E
:10140C0003F00203DAB2264B1A70264B07221A603D
:10141C000BE0244B1B68013B224A13609DF80730FC
:10142C00DBB25B00DBB28DF807309DF80730DBB226
:10143C0003F08003802BECD01A4B1B6803F00703DE
:10144C00184A1360029BDAB2039B1A700F216FF0DB
:10145C000100FFF74BFF00F0E5F9134B00221A6077
:10146C0000F06EF8114B5B68104A43F04043536038
:10147C00074B1B69064A43F010031361FFF7D8FEB4
:10148C00FFF78CFF0023184605B05DF804FB00BF86
:10149C0000ED00E041C20F41545E000000E400E0AA
:1014AC0004250020082500200025002030EF00E056
:1014BC0000B583B040230193019B83F3118800BFD7
:1014CC000B4B1B6801330A4A1360094B1B68012B39
:1014DC000AD1084B5B68C3F30803002B04D0064900
:1014EC0040F2111002F067FA00BF03B05DF804FB84
:1014FC000025002000ED00E0545E000000B583B034
:10150C000D4B1B68002B04D10C494FF48C7002F06E
:10151C0052FA094B1B68013B074A1360064B1B68C8
:10152C00002B05D100230193019B83F3118800BF8D
:10153C0000BF03B05DF804FB00250020545E0000E2
:10154C00044BD3F88830034A43F47003C2F8883054
:10155C0000BF704700ED00E000B585B0EFF30583E8
:10156C000193019B0093BDF80030C3F308039BB2B9
:10157C000393039B0F2B12D9114A039B103B13446B
:10158C0093F800338DF80B300E4B1B789DF80B2025
:10159C009A4204D20C494FF4A97002F00CFAFFF7EE
:1015AC009BFE0246094B1B689A4204D906494FF42C
:1015BC00B17002F000FA00BF05B05DF804FB00BF8B
:1015CC0000E100E004250020545E00000825002006
:1015DC0082B003468DF807309DF90730002B0CDBE9
:1015EC009DF8073003F01F0205499DF907305B0990
:1015FC00012000FA02F241F8232000BF02B070472C
:10160C0000E100E082B003468DF807309DF9073009
:10161C00002B0DDB9DF8073003F01F0206499DF9E6
:10162C0007305B09012000FA02F2603341F82320F5
:10163C0000BF02B0704700BF00E100E082B003467B
:10164C0000918DF807309DF90730002B0ADB009BC9
:10165C00DAB20C499DF907305201D2B20B4483F82F
:10166C0000230BE0009BDAB207499DF8073003F02A
:10167C000F03043B5201D2B20B441A7600BF02B0E6
:10168C00704700BF00E100E000ED00E084B0EFF334
:10169C0011830193019B039340230293029B83F3D9
:1016AC00118800BF039B184604B0704784B00390A8
:1016BC0002910192039B029A02F5A872019943F8D8
:1016CC00221000BF04B0704782B001900091019BC2
:1016DC00009AC3F8042300BF02B0704782B0019097
:1016EC000091019B009AC3F8082300BF02B0704719
:1016FC0084B001900B46ADF80230BDF80230019A6F
:10170C00134400221A60BDF80230019A13441B687E
:10171C000393039B00BF04B0704782B00190019B00
:10172C00D3F80435184602B07047000000B583B0FA
:10173C0001900091009BB3F5805F04D306494FF4F0
:10174C00BE7002F038F9019B009AC3F8082500BF5F
:10175C0003B05DF804FB00BFA45E000082B00190F2
:10176C000B468DF803309DF80320019B13441A4659
:10177C000123136000BF02B0704782B0019000914A
:10178C00019B009AC3F8442300BF02B070470000CD
:10179C0000B587B04FF4A0712048FFF7A9FF0023D4
:1017AC000593FFF773FF03901C48FFF7B6FF0290F9
:1017BC004FF480711948FFF79BFF01F0C1F8024606
:1017CC00029B9B1A23F07F430493049B012B0DD99E
:1017DC0001F0FEFB0346022B08D00123049305E025
:1017EC0001F0D8F80246059B13430593049B5A1E3F
:1017FC000492002BF4D1059B002B04D0084B4FF026
:10180C0080525A6040BF039B0193019B83F3118864
:10181C0000BF00BF07B05DF804FB00BF0010014023
:10182C0000ED00E008B5002002F02AFC1F210E4854
:10183C00FFF77CFF01210C48FFF746FF08210A48FF
:10184C00FFF78CFF00210848FFF788FF02210648AC
:10185C00FFF793FF0F211120FFF7F0FE1120FFF788
:10186C00B7FE00BF08BD00BF0010014000B589B035
:10187C000190019B364A934201D9354B019372B6C4
:10188C0000BF3448FFF749FF069001F0D9FA034630
:10189C00002B56D0069A019B134423F07F430593EB
:1018AC0001212C48FFF71AFF059A00212948FFF760
:1018BC00FDFE4FF4A0712748FFF71AFF4FF480315B
:1018CC002448FFF701FFBFF34F8F00BF019B049328
:1018DC00049B002B09D020BF1F4BD3F800211E4BBB
:1018EC00D3F804311343002BF5D04FF48031194851
:1018FC00FFF7F4FE4FF4A0711648FFF7F9FE4FF412
:10190C0080711448FFF7F4FE01211248FFF7DCFE4A
:10191C001048FFF702FF0390039A069BD31A23F09B
:10192C007F4307931120FFF76DFE079A019B9A42A4
:10193C0001D9019B0793079B002B02D0079801F05C
:10194C0009F862B600BF00BF09B05DF804FB00BF28
:10195C00FDFFFF000010014000E100E084B0EFF358
:10196C0011830193019B039340230293029B83F306
:10197C00118800BF039B184604B0704700B585B0B2
:10198C0001900091019B0393039B002B03D12B49E6
:10199C00FC2002F010F8FFF78BFD039B1A68039BE9
:1019AC00DB6B0399096C01FB03F31A44039B5A602C
:1019BC00039B00229A63039B1A68039B9A60039B08
:1019CC001A68039BDB6B013B0399096C01FB03F366
:1019DC001A44039BDA60039BFF2283F84420039B89
:1019EC00FF2283F84520009B002B16D1039B1B691B
:1019FC00002B1CD0039B1033184601F011F9034641
:101A0C00002B14D00E4B4FF080525A6040BFBFF3E6
:101A1C004F8F00BFBFF36F8F09E0039B1033184645
:101A2C00FFF76AFB039B24331846FFF765FBFFF7B0
:101A3C0065FD0123184605B05DF804FBD45E00007B
:101A4C0000ED00E000B58BB00590049113468DF8C5
:101A5C000F30059B002B04D1154940F26D1001F09D
:101A6C00AAFF049B002B02D10023099304E0059BE1
:101A7C00049A02FB03F30993099B48331846FFF7BA
:101A8C00E7FA0890089B002B0CD0089B483307936F
:101A9C009DF80F20089B00931346079A049905980C
:101AAC0000F008F8089B18460BB05DF804FB00BF6B
:101ABC00D45E000000B585B00390029101928DF8C0
:101ACC000330029B002B03D1069B069A1A6002E09E
:101ADC00069B019A1A60069B039ADA63069B029A8C
:101AEC001A6401210698FFF749FF00BF05B05DF8A5
:101AFC0004FB000000B58BB003900291019200939F
:101B0C0000230993039B0893089B002B04D167497E
:101B1C004FF4377001F04FFF029B002B08D1089B4C
:101B2C001B6C002B04D0614940F2DD2001F043FF17
:101B3C00009B022B08D1089BDB6B012B04D05B496B
:101B4C0040F2DE2001F037FF01F042FA0346002B91
:101B5C0007D1019B002B04D0544940F2E12001F045
:101B6C002AFFFFF7A5FC089B9A6B089BDB6B9A423C
:101B7C0002D3009B022B2ED1009A0299089800F0F8
:101B8C00D5F90790089B5B6A002B12D0089B243375
:101B9C00184601F045F80346002B18D0444B4FF083
:101BAC0080525A6040BFBFF34F8F00BFBFF36F8F9F
:101BBC000DE0079B002B0AD03D4B4FF080525A6032
:101BCC0040BFBFF34F8F00BFBFF36F8F00BFFFF756
:101BDC0095FC012365E0019B002B03D1FFF78EFCE4
:101BEC0000235EE0099B002B05D105AB184601F0E4
:101BFC0077F801230993FFF781FC00F0C7FDFFF78D
:101C0C0057FC089B93F844305BB2B3F1FF3F03D110
:101C1C00089B002283F84420089B93F845305BB264
:101C2C00B3F1FF3F03D1089B002283F84520FFF757
:101C3C0065FC01AA05AB1146184601F063F8034692
:101C4C00002B26D1089800F06BFA0346002B1AD013
:101C5C00089B1033019A1146184600F09BFF089818
:101C6C0000F0F2F900F0D2FD0346002B7FF479AFBF
:101C7C000F4B4FF080525A6040BFBFF34F8F00BFE5
:101C8C00BFF36F8F0CE0089800F0DEF900F0BEFD9A
:101C9C0067E7089800F0D8F900F0B8FD002300E0E1
:101CAC005FE718460BB05DF804FB00BFD45E000084
:101CBC0000ED00E000B58BB003900291019200930F
:101CCC00039B0893089B002B04D1324940F2A230AD
:101CDC0001F071FE029B002B08D1089B1B6C002BA2
:101CEC0004D02C4940F2A33001F065FE009B022B7E
:101CFC0008D1089BDB6B012B04D026494FF469708B
:101D0C0001F059FEFFF728FCFFF728FE0790089B0F
:101D1C009A6B089BDB6B9A4202D3009B022B2CD153
:101D2C00089B93F845308DF81B30009A029908985F
:101D3C0000F0FCF89DF91B30B3F1FF3F12D1089B6A
:101D4C005B6A002B16D0089B2433184600F068FF02
:101D5C000346002B0ED0019B002B0BD0019B0122C4
:101D6C001A6007E09DF81B300133DBB25AB2089BB6
:101D7C0083F845200123099301E000230993079B75
:101D8C000593059B83F3118800BF099B18460BB084
:101D9C005DF804FBD45E000000B58BB0039002919B
:101DAC00019200230993039B0893089B002B04D1F9
:101DBC005C4940F2DF4001F0FEFD029B002B08D194
:101DCC00089B1B6C002B04D0564940F2E34001F0F9
:101DDC00F2FD01F0FDF80346002B07D1019B002B0F
:101DEC0004D050494FF49D6001F0E5FDFFF760FB16
:101DFC00089B9B6B0793079B002B22D0029908989A
:101E0C0000F0FDF8079B5A1E089B9A63089B1B6900
:101E1C00002B12D0089B1033184600F001FF03462C
:101E2C00002B0AD0404B4FF080525A6040BFBFF39A
:101E3C004F8F00BFBFF36F8F00BFFFF75FFB012316
:101E4C006BE0019B002B03D1FFF758FB002364E0F0
:101E5C00099B002B05D105AB184600F041FF01236F
:101E6C000993FFF74BFB00F091FCFFF721FB089B5C
:101E7C0093F844305BB2B3F1FF3F03D1089B0022CF
:101E8C0083F84420089B93F845305BB2B3F1FF3FD5
:101E9C0003D1089B002283F84520FFF72FFB01AAF2
:101EAC0005AB1146184600F02DFF0346002B25D13B
:101EBC00089800F020F90346002B19D0089B243316
:101ECC00019A1146184600F065FE089800F0BCF81F
:101EDC0000F09CFC0346002B88D1134B4FF0805232
:101EEC005A6040BFBFF34F8F00BFBFF36F8F13E03B
:101EFC00089800F0A9F800F089FC77E7089800F042
:101F0C00A3F800F083FC089800F0F5F80346002BCA
:101F1C003FF46CAF002300E068E718460BB05DF8A7
:101F2C0004FB00BFD45E000000ED00E000B587B0FC
:101F3C0003900291019200230593039B9B6B0493E6
:101F4C00039B1B6C002B0DD1039B1B68002B4DD1ED
:101F5C00039B5B68184601F055F80590039B002223
:101F6C005A6043E0019B002B19D1039B9868039B9B
:101F7C001B6C1A46029903F047FE039B9A68039B5D
:101F8C001B6C1A44039B9A60039B9A68039B5B68C7
:101F9C009A422BD3039B1A68039B9A6026E0039BFF
:101FAC00D868039B1B6C1A46029903F02DFE039B09
:101FBC00DA68039B1B6C5B421A44039BDA60039B3D
:101FCC00DA68039B1B689A4207D2039B5A68039BEF
:101FDC001B6C5B421A44039BDA60019B022B05D1FC
:101FEC00049B002B02D0049B013B0493049B5A1CC2
:101FFC00039B9A63059B184607B05DF804FB00B57C
:10200C0083B001900091019B1B6C002B18D0019B9D
:10201C00DA68019B1B6C1A44019BDA60019BDA683D
:10202C00019B5B689A4203D3019B1A68019BDA609F
:10203C00019BD968019B1B6C1A46009803F0E4FDC8
:10204C0000BF03B05DF804FB00B585B00190FFF74D
:10205C002FFA019B93F845308DF80F3013E0019B5C
:10206C005B6A002B14D0019B2433184600F0D8FD7A
:10207C000346002B01D000F09DFE9DF80F30013B74
:10208C00DBB28DF80F309DF90F30002BE7DC00E050
:10209C0000BF019BFF2283F84520FFF72FFAFFF7C3
:1020AC0007FA019B93F844308DF80E3013E0019B36
:1020BC001B69002B14D0019B1033184600F0B0FDA7
:1020CC000346002B01D000F075FE9DF80E30013B4D
:1020DC00DBB28DF80E309DF90E30002BE7DC00E002
:1020EC0000BF019BFF2283F84420FFF707FA00BFD3
:1020FC0005B05DF804FB00B585B00190FFF7D8F989
:10210C00019B9B6B002B02D10123039301E0002365
:10211C000393FFF7F3F9039B184605B05DF804FB36
:10212C0000B585B00190FFF7C3F9019B9A6B019B39
:10213C00DB6B9A4202D10123039301E0002303934A
:10214C00FFF7DCF9039B184605B05DF804FB0000B3
:10215C0084B0019000910023039314E00D4A039B7B
:10216C0052F83330002B0BD10A49039B009A41F8EB
:10217C003320084A039BDB001344019A5A6006E0A3
:10218C00039B01330393039B012BE7D900BF00BFD3
:10219C0004B070470C25002000B587B00390029165
:1021AC000192039B0593FFF783F9059B93F8443049
:1021BC005BB2B3F1FF3F03D1059B002283F84420AF
:1021CC00059B93F845305BB2B3F1FF3F03D1059B00
:1021DC00002283F84520FFF791F9059B9B6B002BA0
:1021EC0006D1059B2433019A0299184600F0F2FCA3
:1021FC000598FFF729FF00BF07B05DF804FB00B599
:10220C008DB00790069104931346ADF81630BDF8C7
:10221C0016309B001846FEF71BFF0990099B002BFC
:10222C000ED04820FEF714FF0B900B9B002B03D015
:10223C000B9B099A1A6305E00998FEF74DFF01E024
:10224C0000230B930B9B002B14D0BDF816200023FE
:10225C0003930B9B02930F9B01930E9B0093049B88
:10226C000699079800F00EF80B9800F08DF80123F2
:10227C000A9302E04FF0FF330A930A9B18460DB005
:10228C005DF804FB00B587B00390029101920093B6
:10229C000A9B186B019B9B001A46A52103F0EAFCD4
:1022AC000A9B1A6B019B03F18043013B9B00134477
:1022BC000493049B23F007030493049B03F007038C
:1022CC00002B04D02F4940F2633001F074FB002343
:1022DC00059312E0029A059B134419780A9A059B00
:1022EC00134434330A461A70029A059B13441B7824
:1022FC00002B06D0059B01330593059B032BE9D9D5
:10230C0000E000BF0A9B002283F83720089B022BB9
:10231C0001D9022308930A9B089ADA620A9B089A4D
:10232C009A630A9B0022DA630A9B04331846FEF771
:10233C00FEFE0A9B18331846FEF7F9FE0A9B0A9A12
:10234C001A61089BC3F103020A9B9A610A9B0A9AC1
:10235C005A620A9B00221A640A9B002283F84420CA
:10236C00009A03990498FEF7E9FF02460A9B1A604B
:10237C00099B002B02D0099B0A9A1A6000BF07B078
:10238C005DF804FB105F000000B583B00190FFF70F
:10239C008FF82C4B1B6801332A4A13602A4B1B689D
:1023AC00002B09D1284A019B1360264B1B68012B7B
:1023BC0010D100F073FD0DE0244B1B68002B09D1EC
:1023CC00214B1B68DA6A019BDB6A9A4202D81E4ACF
:1023DC00019B13601E4B1B6801331D4A1360019B4C
:1023EC00DB6A01229A401B4B1B681343194A13608A
:1023FC00019BDA6A13469B0013449B00164A1A444D
:10240C00019B043319461046FEF799FEFFF776F848
:10241C000E4B1B68002B11D00B4B1B68DA6A019B0F
:10242C00DB6A9A420AD20D4B4FF080525A6040BF81
:10243C00BFF34F8F00BFBFF36F8F00BF00BF03B060
:10244C005DF804FBCC2500201C250020D82500209D
:10245C00E8250020D42500202025002000ED00E0F8
:10246C0000B585B0019000230393019B002B11D084
:10247C00114B1B68002B04D0104940F20F5001F097
:10248C009AFA00F083F90021019800F035FE00F073
:10249C00BDF90390039B002B0AD1094B4FF08052DE
:1024AC005A6040BFBFF34F8F00BFBFF36F8F00BFA9
:1024BC0000BF05B05DF804FBF4250020105F0000A0
:1024CC0000ED00E000B585B00190FEF7F1FF019B37
:1024DC00002B02D13A4B1B6800E0019B0393039B3A
:1024EC0004331846FEF77EFE0346002B15D1039BE2
:1024FC00DA6A344913469B0013449B000B441B6857
:10250C00002B0AD1039BDB6A012202FA03F3DA43A4
:10251C002D4B1B6813402C4A1360039B9B6A002BAA
:10252C0004D0039B18331846FEF75CFE039B043360
:10253C0019462648FEF703FE039B93F84430DBB2A2
:10254C00012B03D1039B002283F84420FEF7D6FF16
:10255C001F4B1B68002B05D0FEF7AAFF00F018FDDF
:10256C00FEF7CCFF164B1B68039A9A4224D1184BEA
:10257C001B68002B14D0174B1B68002B04D016497A
:10258C0040F2A26001F017FA144B4FF080525A60DF
:10259C0040BFBFF34F8F00BFBFF36F8F00BF0BE087
:1025AC000A4B1A680E4B1B689A4203D1044B00224B
:1025BC001A6001E000F096FA00BF05B05DF804FB6C
:1025CC001C25002020250020D4250020B825002023
:1025DC00D8250020F4250020105F000000ED00E05D
:1025EC00CC25002000B585B0019000230393019BFE
:1025FC000293019B002B04D1114940F2CC6001F0F5
:10260C00DAF9029B5B690F4A934201D1012300E086
:10261C000023002B0FD0029B9B6A0B4A93420AD0DB
:10262C00029B9B6A002B01D1012300E00023002BAD
:10263C0001D001230393039B184605B05DF804FBFE
:10264C00105F0000B82500208C25002000B585B057
:10265C000190019B0393019B002B04D1244940F270
:10266C00F66001F0A8F9039B002B3CD0214B1B68B2
:10267C00039A9A4237D0FEF71BFF0398FFF7B2FF7D
:10268C000346002B2DD0039B04331846FEF7AAFDFE
:10269C00039BDB6A01229A40174B1B681343164AB3
:1026AC001360039BDA6A13469B0013449B00134A86
:1026BC001A44039B043319461046FEF740FD039B56
:1026CC00DA6A0C4B1B68DB6A9A420AD30C4B4FF04C
:1026DC0080525A6040BFBFF34F8F00BFBFF36F8F64
:1026EC0000BFFEF70BFF00BF05B05DF804FB00BF99
:1026FC00105F00001C250020D42500202025002080
:10270C0000ED00E000B585B0194B01930023009358
:10271C0000233C2217491848FFF771FD0390039BD7
:10272C00012B02D100F04CFD0390039B012B12D125
:10273C0040230293029B83F3118800BF0F4B4FF091
:10274C00FF321A600E4B01221A600E4B00221A60E7
:10275C00FEF73AFE08E0039BB3F1FF3F04D10A49B0
:10276C0040F2DC7001F027F900BF05B05DF804FB06
:10277C00F02500204C5F0000D12D0000EC2500203E
:10278C00D8250020D0250020105F0000034B1B68CB
:10279C000133024A136000BF704700BFF4250020CC
:1027AC0084B00023029301230193134B1B68019AFD
:1027BC009A4201D201230293104B1B68DB6A002B57
:1027CC0002D00023039312E00D4B1B68012B02D99E
:1027DC00002303930BE0029B002B02D000230393F6
:1027EC0005E0084B1A68084B1B68D31A0393039B2C
:1027FC00184604B0704700BFD42500201C250020CB
:10280C0020250020EC250020D025002000B585B027
:10281C0000230393002302933F4B1B68002B04D12E
:10282C003E494FF4046001F0C6F8FEF741FE3A4B06
:10283C001B68013B384A1360374B1B68002B64D173
:10284C00374B1B68002B60D02EE0364BDB68DB6807
:10285C000393039B18331846FEF7C4FC039B043305
:10286C001846FEF7BFFC039BDB6A01229A402E4BF5
:10287C001B6813432C4A1360039BDA6A13469B00B4
:10288C0013449B00294A1A44039B043319461046EF
:10289C00FEF755FC039BDA6A254B1B68DB6A9A42F0
:1028AC0002D3244B01221A601E4B1B68002BCCD187
:1028BC00039B002B01D000F06BFB1F4B1B6801939B
:1028CC00019B002B10D000F065F80346002B02D0C2
:1028DC00184B01221A60019B013B0193019B002BB9
:1028EC00F1D1154B00221A60124B1B68002B0CD037
:1028FC0001230293114B4FF080525A6040BFBFF33B
:10290C004F8F00BFBFF36F8F00BFFEF7F7FD029B29
:10291C00184605B05DF804FBF4250020105F00009C
:10292C00CC2500208C250020D4250020202500203B
:10293C001C250020E0250020DC25002000ED00E017
:10294C0082B0034B1B680193019B184602B0704781
:10295C00D025002000B583B001900B4B1A68019B69
:10296C001A440A4B1B689A4204D9094940F6C9100B
:10297C0001F021F8044B1A68019B1344024A1360BE
:10298C0000BF03B05DF804FBD0250020EC2500202F
:10299C00105F000000B587B000230593454B1B6802
:1029AC00002B77D1444B1B6801330493424A049BA0
:1029BC001360049B002B1AD1404B1B681B68002B27
:1029CC0004D03F4940F6332000F0F5FF3B4B1B6829
:1029DC0003933C4B1B68394A13603A4A039B1360C0
:1029EC00394B1B680133384A136000F0D1FA374B6E
:1029FC001B68049A9A4252D3304B1B681B68002BFD
:102A0C0001D1012300E00023002B04D02F4B4FF009
:102A1C00FF321A6043E0294B1B68DB68DB680293CA
:102A2C00029B5B680193049A019B9A4203D2274A4A
:102A3C00019B136033E0029B04331846FEF7D2FB74
:102A4C00029B9B6A002B04D0029B18331846FEF79E
:102A5C00C9FB029BDB6A01229A401D4B1B68134386
:102A6C001B4A1360029BDA6A13469B0013449B00BB
:102A7C00184A1A44029B043319461046FEF75FFBB2
:102A8C00029BDA6A144B1B68DB6A9A42B4D30123AB
:102A9C000593B1E7114B1B680133104A1360104BBF
:102AAC001B68002B01D001230593059B184607B02A
:102ABC005DF804FBF4250020D0250020842500209F
:102ACC00105F000088250020E4250020EC25002064
:102ADC00D4250020202500201C250020DC250020EA
:102AEC00E025002000B585B0244B1B68002B03D0DB
:102AFC00234B01221A603DE0214B00221A60214B2E
:102B0C001B680193019B002B01D1202303E0019B47
:102B1C00B3FA83F3DBB2C3F11F0303931A49039A8D
:102B2C0013469B0013449B000B441B68002B04D1E1
:102B3C0016494FF4356000F03EFF039A13469B0094
:102B4C0013449B00104A13440293029B5B685A681F
:102B5C00029B5A60029B5A68029B08339A4204D12A
:102B6C00029B5B685A68029B5A60029B5B68DB683D
:102B7C00074A136000BF05B05DF804FBF425002084
:102B8C00E0250020D425002020250020105F000027
:102B9C001C25002000B583B001900091019B002BF7
:102BAC0004D10A494FF4366000F005FF084B1B684E
:102BBC00183319460198FEF7E1FA0121009800F04C
:102BCC009BFA00BF03B05DF804FB00BF105F000070
:102BDC001C25002000B585B0039002910192039B47
:102BEC00002B04D10C4940F68B3000F0E4FE0B4B6B
:102BFC001B68183319460398FEF7A1FA019B002BAA
:102C0C0002D04FF0FF3302930199029800F074FA4E
:102C1C0000BF05B05DF804FB105F00001C25002010
:102C2C0000B585B00190019BDB68DB680293029BC9
:102C3C00002B04D1234940F6BB3000F0BCFE029BB4
:102C4C0018331846FEF7CEFA1F4B1B68002B1CD10D
:102C5C00029B04331846FEF7C5FA029BDB6A01227D
:102C6C009A401A4B1B681343184A1360029BDA6A8A
:102C7C0013469B0013449B00154A1A44029B0433D1
:102C8C0019461046FEF75BFA05E0029B183319460D
:102C9C001048FEF754FA029BDA6A0F4B1B68DB6A8A
:102CAC009A4205D9012303930C4B01221A6001E0CF
:102CBC000023039300F06CF9039B184605B05DF8F4
:102CCC0004FB00BF105F0000F4250020D425002079
:102CDC00202500208C2500201C250020E02500202C
:102CEC0082B00190054B1A68019B1A60044B1A685C
:102CFC00019B5A6000BF02B0704700BFE425002062
:102D0C00D025002000B587B001900091019B002BCD
:102D1C0004D1254940F6264000F04DFE009B002BC7
:102D2C0004D1214940F6274000F045FEFEF7C0FBD8
:102D3C001E4B1B680493019B5B68049AD31A039384
:102D4C00009B1B68B3F1FF3F02D10023059323E0E6
:102D5C00019B1A68164B1B689A4207D0019B5B6853
:102D6C00049A9A4202D30123059315E0009B1B6839
:102D7C00039A9A420BD2009B1A68039BD21A009BAF
:102D8C001A600198FFF7ACFF0023059304E0009B49
:102D9C0000221A6001230593FEF7B0FB059B184631
:102DAC0007B05DF804FB00BF105F0000D0250020C9
:102DBC00E4250020024B01221A6000BF704700BFBF
:102DCC00E025002000B585B0019000F0A5F8174B68
:102DDC001B68012B0AD9164B4FF080525A6040BF2A
:102DEC00BFF34F8F00BFBFF36F8F00BFFFF7D8FC4F
:102DFC000390039B012BE8D9FFF7C8FC0D4B1A6815
:102E0C000D4B1B689A4204D20C4940F6EE4000F080
:102E1C00D2FDFFF7C5FC0390039B012B02D903984D
:102E2C00FEF724FDFFF7F2FCCFE700BF20250020C2
:102E3C0000ED00E0EC250020D0250020105F000004
:102E4C0082B00123009301238DF807300F4B1B68D0
:102E5C00002B03D000238DF8073012E00C4B1B68BD
:102E6C00002B03D000238DF807300AE0094B1A68B9
:102E7C00094B1968009BCB1A9A4202D102238DF898
:102E8C0007309DF80730184602B070478C2500209B
:102E9C00E0250020B8250020CC25002000B583B00B
:102EAC00002301930CE0019A13469B0013449B00F2
:102EBC00114A13441846FEF71FF9019B0133019385
:102ECC00019B022BEFD90D48FEF716F90C48FEF7C3
:102EDC0013F90C48FEF710F90B48FEF70DF90B48E7
:102EEC00FEF70AF90A4B054A1A600A4B044A1A60A3
:102EFC0000BF03B05DF804FB202500205C250020FA
:102F0C00702500208C250020A0250020B82500204D
:102F1C00842500208825002000B583B019E0FEF739
:102F2C00C7FA104BDB68DB680193019B043318462E
:102F3C00FEF758F90C4B1B68013B0B4A13600B4B0B
:102F4C001B68013B094A1360FEF7D8FA019800F0A0
:102F5C000FF8064B1B68002BE1D100BF00BF03B07C
:102F6C005DF804FBA0250020CC250020B425002012
:102F7C0000B583B00190019B1B6B1846FEF7ACF8B3
:102F8C000198FEF7A9F800BF03B05DF804FB000040
:102F9C0082B00D4B1B681B68002B01D1012300E094
:102FAC000023002B04D0094B4FF0FF321A6008E0CD
:102FBC00054B1B68DB68DB680193019B5B68034A6C
:102FCC00136000BF02B0704784250020EC25002060
:102FDC0082B00A4B1B68002B02D10123019308E03D
:102FEC00074B1B68002B02D10223019301E0002345
:102FFC000193019B184602B0704700BFD8250020F2
:10300C00F425002000B585B00190019B02930023AC
:10301C000393019B002B62D0334B1B68029A9A429C
:10302C0004D0324940F63B7000F0C5FC029BDB6BD0
:10303C00002B04D12D4940F63C7000F0BCFC029BE7
:10304C00DB6B5A1E029BDA63029BDA6A029B9B6B58
:10305C009A4244D0029BDB6B002B40D1029B043381
:10306C001846FEF7BFF80346002B15D1029BDA6A0F
:10307C001F4913469B0013449B000B441B68002BF9
:10308C000AD1029BDB6A012202FA03F3DA43194BE1
:10309C001B681340174A1360029B9A6B029BDA62FF
:1030AC00029BDB6AC3F10302029B9A61029BDB6AFF
:1030BC0001229A400F4B1B6813430E4A1360029B6C
:1030CC00DA6A13469B0013449B00094A1A44029B7C
:1030DC00043319461046FEF732F801230393039B81
:1030EC00184605B05DF804FB1C250020105F00009D
:1030FC0020250020D425002000B585B0019000913A
:10310C00284B1B680393284B1B6804331846FEF7A7
:10311C0069F80346002B0BD1234B1B68DB6A012299
:10312C0002FA03F3DA43214B1B6813401F4A136066
:10313C00019BB3F1FF3F0AD1009B002B07D01A4B28
:10314C001B68043319461A48FDF7F9FF26E0039A69
:10315C00019B13440293144B1B68029A5A60029A07
:10316C00039B9A4209D2134B1A680F4B1B6804330A
:10317C0019461046FEF702F810E00F4B1A680A4B7E
:10318C001B68043319461046FDF7F8FF0B4B1B6800
:10319C00029A9A4202D2094A029B136000BF05B000
:1031AC005DF804FBD02500201C250020D425002030
:1031BC00B82500208825002084250020EC2500203F
:1031CC0000B585B00023039300F080FA0D4B1B680B
:1031DC00002B0AD00C4B01930223009300235022A6
:1031EC000A490B48FFF70BF80390039B002B04D103
:1031FC0008494FF4887000F0DEFB039B184605B0BD
:10320C005DF804FB282600202C260020545F0000CB
:10321C00293300005C5F000000B58BB00390029175
:10322C000192009300230993039B002B04D11B49AB
:10323C0040F2831000F0BFFB194B1B68002B27D00A
:10324C00029B0593019B0693039B0793029B052B03
:10325C0016DCFFF7BDFE0346022B08D1104B186895
:10326C0005A900230C9AFEF745FC099010E00C4BC5
:10327C00186805A900230022FEF73CFC099007E022
:10328C00074B186805A90023009AFEF713FD099057
:10329C00099B18460BB05DF804FB00BF5C5F000097
:1032AC002826002000B587B003900291194B1B68AB
:1032BC00DB68DB680593059B04331846FDF792FF2A
:1032CC00059BDB69012B1CD1059B9A69039BD118CB
:1032DC00039B029A059800F0BDF80346002B10D012
:1032EC00002300930023039A00210598FFF794FF15
:1032FC000490049B002B04D1074940F2E51000F028
:10330C005AFB059B5B6A0598984700BF07B05DF8B0
:10331C0004FB00BF202600205C5F000000B585B0D8
:10332C00019002AB184600F057F80390029B194627
:10333C00039800F003F800F0CFF8F2E700B585B081
:10334C0001900091FFF722FA02AB184600F064F8E6
:10335C000390029B002B32D1009B002B0AD1019AC7
:10336C00039B9A4206D8FFF751FA03990198FFF78D
:10337C0099FF27E0009B002B08D0144B1B681B689F
:10338C00002B0CBF01230023DBB20093104B1868F9
:10339C00019A039BD31A009A1946FEF7FDFEFFF71C
:1033AC0035FA0346002B0DD10A4B4FF080525A6070
:1033BC0040BFBFF34F8F00BFBFF36F8F02E0FFF72B
:1033CC0025FAFFE700BF05B05DF804FB24260020BA
:1033DC002826002000ED00E084B001900D4B1B6806
:1033EC001B68002B0CBF01230023DBB21A46019B88
:1033FC001A60019B1B68002B05D1064B1B68DB6810
:10340C001B68039301E000230393039B184604B04D
:10341C00704700BF2026002000B585B00190FFF753
:10342C008FFA03900A4B1B68039A9A4205D200F05C
:10343C00F1F8019B01221A6002E0019B00221A6044
:10344C00034A039B1360039B184605B05DF804FB0D
:10345C003026002000B587B00390029101920093B2
:10346C0000230593039B029A5A60039B039A1A61EB
:10347C00029A019B9A4212D8019A009BD21A039B82
:10348C009B699A4202D3012305931BE0104B1A68E7
:10349C00039B043319461046FDF770FE12E0019AA7
:1034AC00009B9A4206D2029A009B9A4202D30123B5
:1034BC00059307E0074B1A68039B04331946104623
:1034CC00FDF75CFE059B184607B05DF804FB00BFDA
:1034DC00242600202026002000B58DB086E0049B19
:1034EC00002B12DA04AB04330B930B9B002B04D18F
:1034FC0046494FF4317000F05EFA0B9B1B680B9A37
:10350C0050680B9A926811469847049B002B6DDB10
:10351C00069B0A930A9B5B69002B04D00A9B04331D
:10352C001846FDF75FFE03AB1846FFF775FF0990D1
:10353C00049B092B59D801A252F823F071350000D5
:10354C007135000071350000F9350000C3350000FD
:10355C00EF3500007135000071350000F9350000C1
:10356C00C3350000059A0A9B9B69D118059B099AE3
:10357C000A98FFF76FFF0346002B37D00A9B5B6A54
:10358C000A9898470A9BDB69012B2FD1059A0A9B55
:10359C009B691A4400230093002300210A98FFF72B
:1035AC003BFE0890089B002B20D1184940F2FE20CE
:1035BC0000F001FA1AE0059A0A9B9A610A9B9B6932
:1035CC00002B04D1114940F2153000F0F4F90A9B9C
:1035DC009A69099BD118099B099A0A98FFF73AFF37
:1035EC0004E00A98FDF778FD00E000BF084B1B686B
:1035FC0004A900221846FEF7CFFB0346002B7FF4EC
:10360C006EAF00BF00BF0DB05DF804FB5C5F000047
:10361C002826002000B589B03FE0294B1B68DB68E9
:10362C001B680693264B1B68DB68DB680593059BC0
:10363C0004331846FDF7D6FD059B5B6A0598984741
:10364C00059BDB69012B28D1059B9B69069A1344CA
:10365C000493049A069B9A420ED9059B049A5A60CD
:10366C00059B059A1A61164B1A68059B043319467B
:10367C001046FDF783FD10E0002300930023069A0B
:10368C0000210598FFF7C8FD0390039B002B04D184
:10369C000C4940F26F3000F08EF9094B1B681B6827
:1036AC00002BBAD1064B1B680793074B1B68044AC7
:1036BC001360054A079B136000BF09B05DF804FB5B
:1036CC00202600205C5F00002426002008B5FDF7B2
:1036DC00EFFE134B1B68002B1DD11248FDF70CFDA0
:1036EC001148FDF709FD114B0E4A1A60104B0E4A9A
:1036FC001A60002210212020FEF7A4F90346084A84
:10370C001360074B1B68002B05D0054B1B68094940
:10371C001846FEF71DFDFDF7F1FE00BF08BD00BF0A
:10372C0028260020F82500200C260020202600202A
:10373C00242600209C5F000086B003900291019229
:10374C0001238DF817309DF81730204A039B136026
:10375C001E4A029B53601D4A019B9360039B44F2DB
:10376C000102934212D0039B44F20202934220D1F5
:10377C00019B164AD360154BDB681B68134A936197
:10378C00124BDB685B68114AD36112E0019B0F4A54
:10379C0013610E4B1B699B680C4A53610B4B1B69E5
:1037AC001B680A4A9361094B1B695B68074AD36122
:1037BC0000BF72B600BF00BF9DF81730DBB2002B04
:1037CC00FAD162B600BF00BF06B0704734260020A5
:1037DC0000B583B002900091019244F20100714651
:1037EC006A4600F003F803B000BD00BF30B58BB0E3
:1037FC0007900691059272B600BFFDF763FA00BF01
:10380C00FDF790F80346002BFAD1079B44F2010216
:10381C00934216D0079B44F2020293423ED1059B81
:10382C0009932C4A2C4BD31ADB081B0443F00100E0
:10383C00099B5B681A46099B1B682849FDF735F8FC
:10384C0039E0059B0893234A234BD31ADB081B044E
:10385C0043F00104089B9D68089B9B68184600F088
:10386C005DFB03461846089B5B681946089B1B6862
:10387C00069A02920193009103462A461849204663
:10388C00FDF727F8134A144BD31ADB081B0443F03B
:10389C00010314491846FCF7E9FF0CE00D4A0E4BE6
:1038AC00D31ADB081B0443F00103069A0E49184691
:1038BC00FCF7EAFF00BF0D4B1B6803F00103002B64
:1038CC0000D000BE059A06990798FFF735FF00BF98
:1038DC000BB030BD045D0000F45C0000F45F000030
:1038EC0010600000386000004C600000F0ED00E05B
:1038FC0072B600BF034B1B680133024A136000BF52
:10390C00704700BF54260020064B1B68013B054A3C
:10391C001360044B1B68002B01D162B600BF00BFC3
:10392C00704700BF5426002000B583B0019000F012
:10393C0025F80346012B03D00449432000F03BF843
:10394C00FFF7D6FF00BF03B05DF804FB6460000016
:10395C0000B583B003468DF8073000F00FF803462E
:10396C00012B03D00449512000F025F8FFF7CCFFC0
:10397C0000BF03B05DF804FB6460000084B0EFF39B
:10398C0005830193019BC3F308030393039B002B53
:10399C000DD1EFF314830093009B0293029B03F071
:1039AC000103002B0CBF01230023DBB200E0012339
:1039BC00184604B0704700B585B003460091ADF8C9
:1039CC000630BDF806300293009B039302AB1A46F7
:1039DC00002144F20200FFF709FF00BF05B05DF8BB
:1039EC0004FB10B487B001900091019B009A53E83E
:1039FC00004F104643E8000191F0000FF7D10594F9
:103A0C0004900391059B184607B05DF8044B704772
:103A1C0010B487B001900091019B009A53E8004FBD
:103A2C0044EA020043E8000191F0000FF6D105943E
:103A3C0004900391049B184607B05DF8044B704743
:103A4C0010B487B001900091019B009A53E8004F8D
:103A5C0004EA020043E8000191F0000FF6D105944E
:103A6C0004900391059B184607B05DF8044B704712
:103A7C0010B487B001900091019B009A53E8004F5D
:103A8C0004EB020043E8000191F0000FF6D105941D
:103A9C0004900391049B184607B05DF8044B7047E3
:103AAC0010B487B001900091019B009A53E8004F2D
:103ABC00A4EB020043E8000191F0000FF6D105944D
:103ACC0004900391049B184607B05DF8044B7047B3
:103ADC0000B583B0019001210198FFF799FF0346CF
:103AEC00184603B05DF804FB00B583B001900021CB
:103AFC000198FFF7A5FF0346184603B05DF804FBD9
:103B0C0000B583B001900B468DF80330019B002B60
:103B1C0003D10849E820FFF74EFF019BDA689DF8B6
:103B2C0003300199098A01FB03F31344184603B0CF
:103B3C005DF804FBB060000000B583B0019000910B
:103B4C00019B002B03D10849F520FFF734FF009BA4
:103B5C00019AD2689B1A019A128AB3FBF2F3DBB278
:103B6C00184603B05DF804FBB060000000B585B0EA
:103B7C000190019B002B04D11C494FF49270FFF76C
:103B8C001AFF002303930020FFF7CEFE019B1B6856
:103B9C001A68019B5B689A421FD9019B1B681A68C3
:103BAC00013A1A601B681B7819460198FFF7A8FFA9
:103BBC000390019B9A68019B1B681B68D31A8DF8B4
:103BCC000B30019B1B681B799DF80B209A4204D982
:103BDC00019B1B689DF80B201A710020FFF7B8FEA3
:103BEC00039B184605B05DF804FB00BFB0600000F5
:103BFC0010B584B001900091019B002B04D11149A8
:103C0C0040F24710FFF7D7FE009B002B04D10D4963
:103C1C004FF4A470FFF7CFFE009B03930020FFF737
:103C2C0083FE019B1B681C68621C1A600399019837
:103C3C00FFF782FF034623700020FFF789FE00BFC9
:103C4C0004B010BDB060000000B58BB001900091C5
:103C5C00019B1B8A043B0793009A079B1344DA1CB5
:103C6C00079BB2FBF3F38DF81B300198FFF77EFF37
:103C7C000590059B002B01D1002338E0059B002209
:103C8C001A71059B01225A71079B9AB2059BDA8027
:103C9C00059B09939DF81B30013B0493099B019AEA
:103CAC001A60002308931DE00198FFF75FFF039053
:103CBC00039B002B0ED0059B5B790133DAB2059B7D
:103CCC005A71099B039A1A60039B019A1A60039B11
:103CDC00099304E0059800F00EF8002307E0089B18
:103CEC0001330893089A049B9A42DDD3059B18462E
:103CFC000BB05DF804FB00B58BB00190019B0793F2
:103D0C00079B5B798DF81B30019B08939DF81B304A
:103D1C00013B05930023099305E0089B1B6808935E
:103D2C00099B01330993099A059B9A42F5D3089B89
:103D3C001B680493019B0893002309930BE0089BD9
:103D4C001B68039308990498FFF752FF039B089391
:103D5C00099B013309939DF81B30099A9A42EED3C3
:103D6C0000BF00BF0BB05DF804FB00B585B001903F
:103D7C00019B0393039B043301211846FFF778FE44
:103D8C0000BF05B05DF804FB00B587B00190019B46
:103D9C000593059B043301211846FFF781FE03466A
:103DAC00039303AB0493049B1B78002B02D1019863
:103DBC00FFF7A1FF00BF07B05DF804FB00B591B0A1
:103DCC000390029101920093039B002B03D1434972
:103DDC00B620FFF7F0FD039B0993039B0F93099B00
:103DEC00DB881A46099B5B7902FB03F3043B0893BF
:103DFC00009A089B9A4203D33849C420FFF7DBFD95
:103E0C00099BDB880793009B1A1D079BB2FBF3F3FE
:103E1C000E93009B0433079AB3FBF2F2079901FB54
:103E2C0002F29B1A0D93019B1A68009B1344089A8B
:103E3C009A4203D2089A009BD31A01E0019B1B689B
:103E4C000C93019B0C9A1A6005E00F9B1B680F9357
:103E5C000E9B013B0E930E9B002BF6D100230B9374
:103E6C00079A0D9BD31A0A930A9A0C9B934228BF6C
:103E7C0013460A932AE0029A0B9B134406930F9A5B
:103E8C000D9B1344043305939DF84830002B05D04B
:103E9C000A9A0599069801F0B7FE04E00A9A069969
:103EAC00059801F0B1FE00230D930F9B1B680F9337
:103EBC000C9A0A9BD31A0C930B9A0A9B13440B93E0
:103ECC00079A0C9B934228BF13460A930C9B002B1A
:103EDC00D1D100BF00BF11B05DF804FBF46000004D
:103EEC0000B589B00590049103920293039B07934C
:103EFC0007AA00230093029B04990598FFF75EFF25
:103F0C00079B039A9A4203D00349F620FFF753FD0F
:103F1C0000BF09B05DF804FBF460000000B585B08B
:103F2C000190019800F00EF80390039B002B01D038
:103F3C00039B00E0024B184605B05DF804FB00BF84
:103F4C003861000086B00190164B0593164B049314
:103F5C001FE0049A059BD31ADB10DA0F13445B1095
:103F6C00DB00059A13440393039B1B680293029A8C
:103F7C00019B9A4202D9039B04930AE0029A019B8B
:103F8C009A4203D2039B0833059302E0039B5B68C0
:103F9C0004E0059A049B9A42DBD30023184606B032
:103FAC00704700BF0C65000024660000044BD3F87A
:103FBC000034002B14BF01230023DBB218467047DA
:103FCC000000014000B583B000230193144B1B7813
:103FDC00002B02D08523019314E0114B00229A6030
:103FEC000F4B00225A600E4B00221A610C4B002220
:103FFC00DA600C4800F0F2F9019000F015FA084B69
:10400C0001221A70FFF7D2FF0346002B02D0044B9B
:10401C0001229A70019B184603B05DF804FB00BFA7
:10402C00582600207541000084B001900091019B3E
:10403C001B68039306E0039A009B9A420DD0039BE6
:10404C001B680393039B002BF5D1019B1A68009B03
:10405C001A60019B009A1A6000E000BF04B0704720
:10406C0084B00190019B1B680393039B002B03D02E
:10407C00039B1A68019B1A60039B184604B0704797
:10408C0000B583B00190224B1B78002B03D1214942
:10409C00F620FFF790FC1E4B9B78DBB2002B12D066
:1040AC00019B002B03D0019B5B68012098470020EB
:1040BC00FFF73AFC164BDB680133154AD36000203E
:1040CC00FFF746FC17E00020FFF72EFC019B002BAE
:1040DC0003D001991048FFF7A7FF0D4BDB68002BAD
:1040EC0001D100F0B5F90A4BDB680133084AD36003
:1040FC000020FFF72DFC064BDB68002B04D1054993
:10410C004FF48970FFF757FC00BF03B05DF804FB58
:10411C00582600202C6600006826002000B585B0CB
:10412C0003468DF807309DF80730002B02D10C4B5D
:10413C00039301E00B4B03930398FFF791FF02905D
:10414C00029B002B06D0029B5B689DF80720104653
:10415C009847F1E700BF00BF05B05DF804FB00BF56
:10416C00602600206826002000B583B003468DF839
:10417C0007309DF80730002B05D10A4B01225A70ED
:10418C000020FFF7CBFF9DF80730012B05D1054B25
:10419C0001229A700120FFF7C1FF00BF03B05DF848
:1041AC0004FB00BF5826002082B003468DF8073070
:1041BC009DF90730002B0CDB9DF8073003F01F0234
:1041CC0005499DF907305B09012000FA02F241F81C
:1041DC00232000BF02B0704700E100E082B003462C
:1041EC0000918DF807309DF90730002B0ADB009BFE
:1041FC00DAB20C499DF907305201D2B20B4483F864
:10420C0000230BE0009BDAB207499DF8073003F05E
:10421C000F03043B5201D2B20B441A7600BF02B01A
:10422C00704700BF00E100E000ED00E082B00190BB
:10423C00019B1B0B5BB2184602B0704700B583B0F4
:10424C0003460A468DF8073013468DF806309DF864
:10425C000630072B03D908496B20FFF7ACFB9DF800
:10426C0006209DF9073011461846FFF7B7FF00BF2F
:10427C0003B05DF804FB00BF7066000000B583B0AE
:10428C0003468DF807309DF907301846FFF78CFF71
:10429C0000BF03B05DF804FB82B003468DF8073015
:1042AC000F4A9DF90730002B00DA1F335B115BB20C
:1042BC0052F823209DF90730594203F01F0301F0F7
:1042CC001F0158BF4B425BB222FA03F303F0010308
:1042DC00002B14BF01230023DBB2184602B0704739
:1042EC0000E100E082B001904FF08042019BC2F8E7
:1042FC00043300BF02B0704782B001904FF080428F
:10430C00019BC2F8083300BF02B0704782B003466D
:10431C008DF807309DF8073003F1804301221A60B5
:10432C0000BF02B0704784B00346ADF80630BDF84C
:10433C00063003F1804300221A60BDF8063003F109
:10434C0080431B680393039B00BF04B0704782B08B
:10435C000346ADF80630BDF8063003F180431B6808
:10436C00002B14BF01230023DBB2184602B07047A8
:10437C0082B001904FF08042019BC2F8183500BF0B
:10438C0002B0704700B583B006238DF807304FF0AC
:10439C008040FFF74BFF03461846FFF77DFF0346AF
:1043AC0083F00103DBB2002B13D04FF08040FFF7FA
:1043BC003DFF03461A469DF8073019461046FFF795
:1043CC003DFF4FF08040FFF731FF03461846FFF7E3
:1043DC0055FF00BF03B05DF804FB000000B585B0CD
:1043EC000190019B002B03D10D49A420FFF7E3FAA8
:1043FC00002303930B4B1B79002B02D085230393D3
:10440C0008E0084A019B1360064B01221A71054B08
:10441C0000225A71039B184605B05DF804FB00BFDF
:10442C00A86600006C26002008B5074B1B79002BF2
:10443C0003D10649BD20FFF7BEFAFFF7A3FF012009
:10444C00FFF796FF00BF08BD6C260020A866000091
:10445C0008B50A4B1B79002B03D10949EA20FFF759
:10446C00AAFA4FF48270FFF75EFF0220FFF73AFFC3
:10447C000820FFF74BFF00BF08BD00BF6C260020D3
:10448C00A866000008B54FF48070FFF760FF034684
:10449C00002B14D04FF48070FFF745FF0120FFF77D
:1044AC002BFF114B5B7983F00103DBB2002B06D0A1
:1044BC000D4B01225A710C4B1B68002098474FF48E
:1044CC008270FFF744FF0346002B0AD04FF4827032
:1044DC00FFF729FF0220FFF70FFF034B1B6801209A
:1044EC00984700BF08BD00BF6C26002000B583B004
:1044FC000346ADF80630BDF80630184600F026F835
:10450C0003461B68012B0CBF01230023DBB21846AA
:10451C0003B05DF804FB00B585B00346ADF806307A
:10452C00BDF80630184600F011F803461A46002371
:10453C001360BDF80630184600F008F803461B68F7
:10454C000393039B00BF05B05DF804FB82B00346E8
:10455C00ADF80630BDF8063003F1804303F5C043D7
:10456C00184602B07047000082B00190034BD3F89C
:10457C000423019B1340184602B0704700600040B2
:10458C0082B00190054A019B03F5A27352F82330C7
:10459C001B0A03F03F03184602B07047006000404E
:1045AC0082B00190064A019B03F5A27352F82330A6
:1045BC001B0C03F00303DBB2184602B0704700BFBC
:1045CC000060004000B583B00190019B1B68184649
:1045DC0000F0AAF80346002B04D10B494FF4F670F7
:1045EC00FFF7E9F9019B1B681F2B02D84FF0A04382
:1045FC0006E0019B1B6803F01F02019B1A60034B32
:10460C00184603B05DF804FB1C6700000003005063
:10461C0000B585B001900B468DF8033001AB184600
:10462C00FFF7D0FF0390019A039B02F5E07253F859
:10463C002230019A23F44031039B02F5E07243F8D7
:10464C002210019A039B02F5E07253F822309DF878
:10465C00032012041146019A1943039B02F5E072E0
:10466C0043F8221000BF05B05DF804FB00B585B01F
:10467C00019001AB1846FFF7A5FF0390019A039B2D
:10468C0002F5E07253F822301B0C03F00303DBB28B
:10469C00184605B05DF804FB88B0039002910192B6
:1046AC00164A05AB92E8030083E80300039B0793CB
:1046BC0019E0079B9B0020336B4453F80C3CD3F858
:1046CC002025019B1A60079B9B0020336B4453F8F9
:1046DC000C3C019A1268C3F82025019B043301930A
:1046EC00079B01330793039A029B1344079A9A4240
:1046FC00DFD300BF00BF08B0704700BF4C6700009D
:10470C0000B585B0019001AB1846FFF75BFF039035
:10471C00019B012202FA03F31A46039BC3F82025DE
:10472C0000BF05B05DF804FB84B00190019B5B09F0
:10473C00029300230393029B002B03D0029B012BBB
:10474C0004D007E04FF0FF33039303E04FF6FF7301
:10475C00039300BF019B03F01F030193039A019B7A
:10476C0022FA03F303F00103002B14BF01230023EF
:10477C00DBB2184604B0704784B001900091009BE6
:10478C000393019BDB080293019B03F00703019346
:10479C000122019B02FA03F30399029A0A4412784C
:1047AC001340184604B0704782B00190044A019B34
:1047BC001344303393F90030184602B0704700BFF1
:1047CC007426002082B00190034A019B52F82330DA
:1047DC00184602B0704700BF7426002084B00190C8
:1047EC00074A019B1344603393F900308DF80F3066
:1047FC009DF80F3023F0C003184604B0704700BF7B
:10480C007426002084B00190074A019B1344603346
:10481C0093F900308DF80F309DF80F309B09DBB207
:10482C00184604B0704700BF7426002000B585B050
:10483C000190019A02210020FFF72EFF0023039321
:10484C000BE0039B9B00019A13441B68002B01D0C7
:10485C00012306E0039B01330393039B012BF0D947
:10486C000023184605B05DF804FB000000B587B0C6
:10487C000190002305935BE0344A059B134460339D
:10488C0093F90030B3F1FF3F4ED00598FFF7A6FF28
:10489C00049001990498FFF76FFF0346002B44D056
:1048AC000598FFF7AFFF03468DF80F300498FFF71C
:1048BC00DDFE03468DF80E309DF80E30022B01D133
:1048CC00032300E002238DF80D309DF80D301946BE
:1048DC000498FFF79DFE0498FFF712FF0498FFF76A
:1048EC0063FF03461846FFF76DFF0290029B002BF7
:1048FC001BD09DF80F30032B0FD09DF80E30022BE0
:10490C0003D19DF80F30012B07D09DF80E30032BEF
:10491C000BD19DF80F30022B07D19DF80F20029B75
:10492C0011460498984700E000BF059B013305939E
:10493C00059B032BA0D90198FFF778FF0346002BAA
:10494C0097D100BF00BF07B05DF804FB74260020B0
:10495C0000B58BB00023089301AB00221A605A609B
:10496C004FF48073ADF81A30012309930023079399
:10497C0021E0BDF81A301846FFF7B8FD0346002BAE
:10498C000ED00998FFF7F0FD0346002B08D0BDF8B8
:10499C001A301846FFF7BFFD089A099B134308937A
:1049AC00099B5B000993BDF81A300433ADF81A303B
:1049BC00079B01330793079B072BDAD94FF4BE7083
:1049CC00FFF794FD0346002B0DD04FF4BE70FFF79C
:1049DC00A2FD089B43F00043089301AB1A46022149
:1049EC000020FFF759FE089BDBB2002B29D00123D6
:1049FC0009930023079321E0099A089B1340002B8D
:104A0C0016D00798FFF7BCFD05900798FFF7C8FD77
:104A1C0003468DF813300798FFF7D4FE0390039BE1
:104A2C00002B05D09DF81320039B11460598984741
:104A3C00099B5B000993079B01330793079B072B8B
:104A4C00DAD9089B002B03DA01AB1846FFF70EFFEF
:104A5C0000BF0BB05DF804FB00B583B001900020E3
:104A6C00FCF792FAC820FDF7FBFCF8E700B585B01F
:104A7C0001900120FCF788FA0023039310490020D1
:104A8C0001F0AEF80F4B1B6801330E4A13600D4B4F
:104A9C001B68092B0EDD0C49002001F0A1F80B4B13
:104AAC0001221A700A4B00221A600A4B1B68184626
:104ABC00FDF708FD4FF4FA70FDF7D2FCD9E700BF03
:104ACC00A0670000F0260020B0670000F826002048
:104ADC00F4260020EC26002000B583B001900220C3
:104AEC00FCF752FA1249002001F07AF84FF4FA70F0
:104AFC00FDF7B6FC0F4B1B78002BF0D00E4B1B6850
:104B0C0001330D4A13600C4B1B68092BE7DD0B4975
:104B1C00002001F065F80A4B1B681846FDF796FD5E
:104B2C00044B00221A70074B00221A60D7E700BF13
:104B3C00CC670000F8260020F4260020E067000077
:104B4C00EC260020F026002000B583B00190032055
:104B5C00FCF71AFA0C49002001F042F84FF4FA70F5
:104B6C00FDF77EFC094B1B680133084A1360074BA9
:104B7C001B680E2BEBDD0649002001F031F80020FC
:104B8C00FDF7A0FCE3E700BFF8670000FC2600205F
:104B9C000868000000B585B000F0C2FCFFF712FAFF
:104BAC000390039B0293029B002B04D01E4AAC2162
:104BBC000298FEF70DFE0120FCF734FA1B4B019313
:104BCC000223009300234FF4827219491948FDF710
:104BDC0016FB194B01930423009300234FF48272AC
:104BEC0016491748FDF70BFB164B01930123009355
:104BFC0000234FF4827214491448FDF700FB144B48
:104C0C001B6801930123009300234FF48272114916
:104C1C001148FDF7F4FA114B1B69104A43F00403D9
:104C2C001361FDF76FFDFEE730680000E026002001
:104C3C007C680000654A0000EC26002084680000B7
:104C4C00794A0000E426002094680000554B0000CF
:104C5C00E8260020A4680000E54A000000ED00E012
:104C6C00BFF34F8F00BF064BDB6803F4E0620449CF
:104C7C00044B1343CB60BFF34F8F00BF00BFFDE766
:104C8C0000ED00E00400FA0582B0164B1B6801939E
:104C9C00154B1B680093019B082B1FD1009B052B08
:104CAC001AD801A252F823F0CD4C0000D14C0000D0
:104CBC00D54C0000D94C0000DD4C0000E14C00004C
:104CCC0001230CE001230AE0012308E0012306E0A4
:104CDC00012304E0012302E0012300E00023184635
:104CEC0002B07047300100103401001082B0164B36
:104CFC001B680193154B1B680093019B082B1FD15C
:104D0C00009B052B1AD801A252F823F0314D00005C
:104D1C00354D0000394D00003D4D0000414D000067
:104D2C00454D000001230CE001230AE0012308E0BB
:104D3C00012306E0012304E0012302E0012300E04B
:104D4C000023184602B070473001001034010010E7
:104D5C0082B0164B1B680193154B1B680093019B8B
:104D6C00082B1FD1009B052B1AD801A252F823F057
:104D7C00954D0000994D00009D4D0000A14D000087
:104D8C00A54D0000A94D000001230CE000230AE012
:104D9C00002308E0002306E0002304E0002302E0E7
:104DAC00002300E00023184602B0704730010010C9
:104DBC003401001082B0164B1B680193154B1B6815
:104DCC000093019B082B1FD1009B052B1AD801A225
:104DDC0052F823F0F94D0000FD4D0000014E00008B
:104DEC00054E0000094E00000D4E000001230CE0A2
:104DFC0000230AE0002308E0002306E0002304E07F
:104E0C00002302E0002300E00023184602B07047A4
:104E1C00300100103401001082B0164B1B68019356
:104E2C00154B1B680093019B082B1FD1009B052B76
:104E3C001AD801A252F823F05D4E0000614E00001A
:104E4C00654E0000694E00006D4E0000714E000072
:104E5C0001230CE000230AE0002308E0002306E015
:104E6C00002304E0002302E0002300E000231846A6
:104E7C0002B07047300100103401001082B0164BA4
:104E8C001B680193154B1B680093019B082B1FD1CA
:104E9C00009B052B1AD801A252F823F0C14E00003A
:104EAC00C54E0000C94E0000CD4E0000D14E000092
:104EBC00D54E000001230CE000230AE0002308E09B
:104ECC00002306E0002304E0002302E0002300E0BE
:104EDC000023184602B07047300100103401001056
:104EEC0082B0164B1B680193154B1B680093019BFA
:104EFC00082B1FD1009B052B1AD801A252F823F0C6
:104F0C00254F0000294F00002D4F0000314F0000AD
:104F1C00354F0000394F000001230CE001230AE05B
:104F2C00012308E0012306E0012304E0012302E051
:104F3C00012300E00023184602B070473001001036
:104F4C003401001082B0164B1B680193154B1B6883
:104F5C000093019B082B1FD1009B052B1AD801A293
:104F6C0052F823F0894F00008D4F0000914F000044
:104F7C00954F0000994F00009D4F000000230CE05E
:104F8C0000230AE0002308E0002306E0012304E0EC
:104F9C00012302E0012300E00023184602B0704711
:104FAC00300100103401001008B5FFF7CBFF0346A9
:104FBC00002B07D04FF010234FF08042D3F808326B
:104FCC00C2F8583500BF08BD00BF044BD3F80034FD
:104FDC00002BFAD000BF00BF704700BF00E00140BB
:104FEC0000B583B00190054A019BC2F80435FFF768
:104FFC00EBFF00BF03B05DF804FB00BF00E0014015
:10500C00024B034A1A6000BF704700BF0400002027
:10501C000090D00308B5FFF737FE0346002B0ED0E7
:10502C004FF080430022C3F80C214FF08043002244
:10503C00C3F810214FF080430022C3F83825FFF746
:10504C0055FE0346002B76D04FF08053734AD3F8AD
:10505C000434C2F820354FF08053704AD3F808342A
:10506C00C2F824354FF080536C4AD3F80C34C2F894
:10507C0028354FF08053694AD3F81034C2F82C35D8
:10508C004FF08053654AD3F81434C2F830354FF0E2
:10509C008053624AD3F81834C2F834354FF0805339
:1050AC005E4AD3F81C34C2F840354FF080535B4A4B
:1050BC00D3F82034C2F844354FF08053574AD3F814
:1050CC002434C2F848354FF08053544AD3F828346E
:1050DC00C2F84C354FF08053504AD3F82C34C2F8F8
:1050EC0050354FF080534D4AD3F83034C2F8543514
:1050FC004FF08053494AD3F83434C2F860354FF03E
:10510C008053464AD3F83834C2F864354FF0805394
:10511C00424AD3F83C34C2F868354FF080533F4ACA
:10512C00D3F84034C2F86C354FF080533B4AD3F877
:10513C004434C2F87035FFF70BFE0346002B02D047
:10514C00374B384A1A60FFF735FE0346002B03D065
:10515C00354BFB22C3F81825FFF75EFE0346002BE8
:10516C000AD0324B1B6823F00F02314B1B6803F043
:10517C000F032E4913430B60FFF780FE0346002BF1
:10518C0003D02C4B4FF400721A60FFF7A9FE0346B4
:10519C00002B0DD04FF08043D3F8003403F0010303
:1051AC00002B05D04FF080436FF00102C3F80024B0
:1051BC00214BD3F88830204A43F47003C2F888306E
:1051CC00BFF34F8F00BFBFF36F8F00BFFFF7ECFE35
:1051DC004FF01023D3F80032002B05DB4FF01023D7
:1051EC00D3F80432002B15DA0120FFF7F9FE4FF04B
:1051FC0010231222C3F80022FFF7E6FE4FF0102313
:10520C001222C3F80422FFF7DFFE0020FFF7E8FEAE
:10521C00FFF726FDFFF7F4FE00BF08BD00C00040FD
:10522C008C5600404881030000F00040E40E004022
:10523C00580200104096024000ED00E082B0204B76
:10524C000193019B02221A61019B02225A61019B6C
:10525C001C4A9A61019B1C4ADA61019B4FF4007253
:10526C001A62019B00229A62019B00225A62019BE6
:10527C000022DA62019B134A9A64019B134ADA6496
:10528C00019B10221A65019B00229A65019B00224A
:10529C005A65019B0022DA65019B07330C4A1068A2
:1052AC001860019B0B4A106818609188927999805C
:1052BC009A71019B20229A7100BF02B0704700BF07
:1052CC0000270020B46800007827002078290020EF
:1052DC00C0680000C468000000B589B0039002915A
:1052EC00019200230693039BDB680593039B1B69C8
:1052FC000493049A059B9A4205D9049A059BD31AE8
:10530C00013B079307E0039B9A680499059BCB1A12
:10531C001344013B0793039B9A68059BD31A079A86
:10532C00934228BF13460793079A019B934228BFC9
:10533C0013460793039B5A68059B1344079A0299DB
:10534C00184600F061FC069A079B13440693029AD8
:10535C00079B13440293019A079BD31A0193059A56
:10536C00079B13440593039B9B68059A9A4201D1B2
:10537C0000230593039B059ADA60019B002BB5D1A2
:10538C00069B184609B05DF804FB00B589B0039084
:10539C0002910192039BDB680793039B9A68079B1E
:1053AC00D31A0693069A019B9A420ED9039B5A680C
:1053BC00079B1344019A0299184600F025FC079AA2
:1053CC00019B1A44039BDA601AE0069B0593039B2E
:1053DC005A68079B1344059A0299184600F014FC6E
:1053EC00019A069BD31A0593039B5868029A069B55
:1053FC001344059A194600F007FC039B059ADA60E2
:10540C0000BF09B05DF804FB86B00190019B1B69DD
:10541C000493019BDB680393049A039B9A4208D87C
:10542C00019B9A68039BD21A049B1344013B05937E
:10543C0004E0049A039BD31A013B0593059B184681
:10544C0006B0704700B589B0039002910192029B9F
:10545C000693039B5A1C13465B001344DB00204A43
:10546C0013440593059B5B69022B29D0022B2ED884
:10547C00002B02D0012B13D029E00598FFF7C4FFB5
:10548C000490049A019B9A4202D20023079321E0D4
:10549C00019B0793019A06990598FFF776FF19E08F
:1054AC000598FFF7B1FF0490019A049B934228BF23
:1054BC0013460793079A06990598FFF766FF09E0CC
:1054CC00019A06990598FFF707FF079002E0002361
:1054DC00079300BF079B184609B05DF804FB00BF9B
:1054EC000027002000B587B00390029101920B4B6E
:1054FC001B78002B01D1FFF7A1FE0020FEF714FA58
:10550C00019A02990398FFF79DFF05900020FEF782
:10551C001FFA059B184607B05DF804FB0027002016
:10552C0008B5FFF78BFE00BF08BD00B585B0019034
:10553C000B468DF80330019B9B680393039B5A1C0D
:10554C00019B5B689A420FD8019B1A68039B13441A
:10555C009DF803201A70039B5A1C019B9A60019BB7
:10556C00DB685A1C019BDA60019B9A68019B5B68A3
:10557C009A4215D1019B1869019B1968019B9B6884
:10558C001A46FFF7AFFF0246019B9B689A4204D074
:10559C00019B4FF0FF32DA6002E0019B00229A601F
:1055AC0000BF05B05DF804FB00B58BB00390029111
:1055BC0001920093029B0893012309930123079303
:1055CC0007E0089A019BB2FBF3F30893079B0133A6
:1055DC000793089A019B9A42F3D2009A079B9A422E
:1055EC0001D9009B07930D9B03F00103002B28D1DD
:1055FC000C9B002B25D00D9B03F00203002B06D037
:10560C00009B002B03D130238DF81B3002E02023AC
:10561C008DF81B300CE00C9B013B0C939DF81B3060
:10562C0019460398FFF781FF039BDB68002B07DB10
:10563C000C9B002B05D0079A0C9B9A42EBD300E0F5
:10564C0000BF039BDB68002B55DB009B012B03D9B0
:10565C00009B013B009309E0029A099BB2FBF3F318
:10566C000593059A019B9A4200D205E0099B019A89
:10567C0002FB03F30993E8E7029A099BB2FBF3F3ED
:10568C000593059B099A02FB03F3029AD31A029322
:10569C001B4A059B13441B7819460398FFF745FFDB
:1056AC00039BDB68002B08DB099A019BB2FBF3F32D
:1056BC000993099B002BDFD100E000BF0D9B03F089
:1056CC000103002B17D00C9B002B14D00AE00C9B71
:1056DC00013B0C9320210398FFF727FF039BDB680A
:1056EC00002B07DB0C9B002B05D0079A0C9B9A42D6
:1056FC00EDD300E000BF00BF0BB05DF804FB00BFB2
:10570C00CC68000000B589B0059004910392029317
:10571C00049B002BB8BF5B4206930123079307E061
:10572C00039B069A92FBF3F30693079B01330793B3
:10573C00039B069A9A42F3DA029A079B9A4201D982
:10574C00029B07930A9B002B0AD0049B002B04DBC3
:10575C000B9B03F00403002B02D00A9B013B0A9322
:10576C000B9B03F00203002B02D0029B002B1CD0DE
:10577C000B9B03F00103002B17D10A9B002B14D0B9
:10578C000AE00A9B013B0A9320210598FFF7CDFE06
:10579C00059BDB68002B07DB0A9B002B05D0079AC7
:1057AC000A9B9A42EDD300E000BF059BDB68002BFF
:1057BC004ADB049B002B07DA049B5B4204932D21EC
:1057CC000598FFF7B2FE08E00B9B03F00403002BD7
:1057DC0003D02B210598FFF7A8FE059BDB68002B57
:1057EC0032DB0B9B03F00203002B1FD00B9B03F04F
:1057FC000103002B1AD1029B002B17D10A9B002B03
:10580C0014D00AE00A9B013B0A9330210598FFF75C
:10581C008CFE059BDB68002B07DB0A9B002B05D05D
:10582C00079A0A9B9A42EDD300E000BF059BDB6808
:10583C00002B09DB04990B9B01930A9B0093029BA1
:10584C00039A0598FFF7B0FE00BF09B05DF804FBA2
:10585C0000B5A3B005900491039206AB16934023B8
:10586C00179300231893059B1A9300231993049BF9
:10587C001B788DF88730049B013304939DF8873097
:10588C00002B00F097819DF88730252B40F0868106
:10589C0000231E9301232093049B1B788DF88730E3
:1058AC009DF88730233B0D2B3ED801A252F823F0F4
:1058BC0025590000355900003559000035590000B4
:1058CC003559000035590000355900003559000094
:1058DC001559000035590000F558000035590000E5
:1058EC0035590000055900001E9B43F001031E931F
:1058FC00049B013304931AE01E9B43F002031E9396
:10590C00049B0133049312E01E9B43F004031E938B
:10591C00049B013304930AE01E9B43F008031E937F
:10592C00049B0133049302E00023209300BF209BCF
:10593C00002BB1D100231D93049B1B788DF887306D
:10594C009DF887302F2B12D99DF88730392B0ED824
:10595C00049B013304931D9A13469B0013445B0074
:10596C001A469DF887301344303B1D93E4E700231F
:10597C001F93049B1B788DF887309DF887302E2B56
:10598C001DD1049B01330493049B1B788DF8873045
:10599C009DF887302F2B12D99DF88730392B0ED8D4
:1059AC00049B013304931F9A13469B0013445B0022
:1059BC001A469DF887301344303B1F93E4E7049B51
:1059CC001B788DF887309DF887306C2B03D09DF8B1
:1059DC008730682B07D1049B01330493049B1B78FD
:1059EC008DF88730EFE79DF88730252B00F0CB80C2
:1059FC00252BC0F2CE80782B00F3CB80582BC0F235
:105A0C00C880583B202B00F2C48001A252F823F02E
:105A1C000D5B00009F5B00009F5B00009F5B000024
:105A2C009F5B00009F5B00009F5B00009F5B000082
:105A3C009F5B00009F5B00009F5B0000A15A000071
:105A4C00C55A00009F5B00009F5B00009F5B00003D
:105A5C009F5B00009F5B00009F5B00009F5B000052
:105A6C009F5B00009F5B00009F5B00009F5B000042
:105A7C006F5B00009F5B00009F5B0000315B0000D0
:105A8C009F5B0000E95A00009F5B00009F5B0000D9
:105A9C000D5B0000039B1B68191D039A11601B68AA
:105AAC002093209B8DF86F309DF86F2016AB11461C
:105ABC001846FFF73AFD6DE0039B1B68191D039A0E
:105ACC0011601B68209316A81E9B01931D9B0093CD
